{
  "_format": "hh-sol-artifact-1",
  "contractName": "SimpleRegistry",
  "sourceName": "contracts/SimpleRegistry.sol",
  "abi": [
    {
      "anonymous": false,
      "inputs": [
        {
          "indexed": true,
          "internalType": "address",
          "name": "who",
          "type": "address"
        },
        {
          "indexed": false,
          "internalType": "string",
          "name": "name",
          "type": "string"
        }
      ],
      "name": "Registered",
      "type": "event"
    },
    {
      "inputs": [
        {
          "internalType": "address",
          "name": "",
          "type": "address"
        }
      ],
      "name": "names",
      "outputs": [
        {
          "internalType": "string",
          "name": "",
          "type": "string"
        }
      ],
      "stateMutability": "view",
      "type": "function"
    },
    {
      "inputs": [
        {
          "internalType": "string",
          "name": "",
          "type": "string"
        }
      ],
      "name": "owners",
      "outputs": [
        {
          "internalType": "address",
          "name": "",
          "type": "address"
        }
      ],
      "stateMutability": "view",
      "type": "function"
    },
    {
      "inputs": [
        {
          "internalType": "string",
          "name": "name",
          "type": "string"
        }
      ],
      "name": "register",
      "outputs": [],
      "stateMutability": "nonpayable",
      "type": "function"
    }
  ],
  "bytecode": "0x608060405234801561001057600080fd5b50610800806100206000396000f3fe608060405234801561001057600080fd5b50600436106100415760003560e01c80632b1fd995146100465780635cf3d34614610076578063f2c298be146100a6575b600080fd5b610060600480360381019061005b91906104a8565b6100c2565b60405161006d91906105b9565b60405180910390f35b610090600480360381019061008b919061047f565b61010b565b60405161009d91906105d4565b60405180910390f35b6100c060048036038101906100bb91906104a8565b6101ab565b005b6001818051602081018201805184825260208301602085012081835280955050505050506000915054906101000a900473ffffffffffffffffffffffffffffffffffffffff1681565b6000602052806000526040600020600091509050805461012a90610712565b80601f016020809104026020016040519081016040528092919081815260200182805461015690610712565b80156101a35780601f10610178576101008083540402835291602001916101a3565b820191906000526020600020905b81548152906001019060200180831161018657829003601f168201915b505050505081565b600073ffffffffffffffffffffffffffffffffffffffff166001826040516101d391906105a2565b908152602001604051809103902060009054906101000a900473ffffffffffffffffffffffffffffffffffffffff1673ffffffffffffffffffffffffffffffffffffffff1614610258576040517f08c379a000000000000000000000000000000000000000000000000000000000815260040161024f906105f6565b60405180910390fd5b60003390508060018360405161026e91906105a2565b908152602001604051809103902060006101000a81548173ffffffffffffffffffffffffffffffffffffffff021916908373ffffffffffffffffffffffffffffffffffffffff160217905550816000808373ffffffffffffffffffffffffffffffffffffffff1673ffffffffffffffffffffffffffffffffffffffff168152602001908152602001600020908051906020019061030c92919061035f565b508073ffffffffffffffffffffffffffffffffffffffff167fb3eccf73f39b1c07947c780b2b39df2a1bb058b4037b0a42d0881ca1a028a1328360405161035391906105d4565b60405180910390a25050565b82805461036b90610712565b90600052602060002090601f01602090048101928261038d57600085556103d4565b82601f106103a657805160ff19168380011785556103d4565b828001600101855582156103d4579182015b828111156103d35782518255916020019190600101906103b8565b5b5090506103e191906103e5565b5090565b5b808211156103fe5760008160009055506001016103e6565b5090565b600061041561041084610647565b610616565b90508281526020810184848401111561042d57600080fd5b6104388482856106d0565b509392505050565b60008135905061044f816107b3565b92915050565b600082601f83011261046657600080fd5b8135610476848260208601610402565b91505092915050565b60006020828403121561049157600080fd5b600061049f84828501610440565b91505092915050565b6000602082840312156104ba57600080fd5b600082013567ffffffffffffffff8111156104d457600080fd5b6104e084828501610455565b91505092915050565b6104f28161069e565b82525050565b600061050382610677565b61050d8185610682565b935061051d8185602086016106df565b610526816107a2565b840191505092915050565b600061053c82610677565b6105468185610693565b93506105568185602086016106df565b80840191505092915050565b600061056f600a83610682565b91507f4e616d652074616b656e000000000000000000000000000000000000000000006000830152602082019050919050565b60006105ae8284610531565b915081905092915050565b60006020820190506105ce60008301846104e9565b92915050565b600060208201905081810360008301526105ee81846104f8565b905092915050565b6000602082019050818103600083015261060f81610562565b9050919050565b6000604051905081810181811067ffffffffffffffff8211171561063d5761063c610773565b5b8060405250919050565b600067ffffffffffffffff82111561066257610661610773565b5b601f19601f8301169050602081019050919050565b600081519050919050565b600082825260208201905092915050565b600081905092915050565b60006106a9826106b0565b9050919050565b600073ffffffffffffffffffffffffffffffffffffffff82169050919050565b82818337600083830152505050565b60005b838110156106fd5780820151818401526020810190506106e2565b8381111561070c576000848401525b50505050565b6000600282049050600182168061072a57607f821691505b6020821081141561073e5761073d610744565b5b50919050565b7f4e487b7100000000000000000000000000000000000000000000000000000000600052602260045260246000fd5b7f4e487b7100000000000000000000000000000000000000000000000000000000600052604160045260246000fd5b6000601f19601f8301169050919050565b6107bc8161069e565b81146107c757600080fd5b5056fea2646970667358221220d1b1365c587fd166910f9a8557223507fb22ec8280cdacd18836632d75899b5f64736f6c63430008000033",
  "linkReferences": {},
  "deployedLinkReferences": {}
}