{
  "_format": "hh-sol-artifact-1",
  "contractName": "Registry",
  "sourceName": "contracts/Registry.sol",
  "abi": [
    {
      "inputs": [
        {
          "internalType": "contract MinimalForwarder",
          "name": "forwarder",
          "type": "address"
        }
      ],
      "stateMutability": "nonpayable",
      "type": "constructor"
    },
    {
      "anonymous": false,
      "inputs": [
        {
          "indexed": true,
          "internalType": "address",
          "name": "who",
          "type": "address"
        },
        {
          "indexed": false,
          "internalType": "string",
          "name": "name",
          "type": "string"
        }
      ],
      "name": "Registered",
      "type": "event"
    },
    {
      "inputs": [
        {
          "internalType": "address",
          "name": "forwarder",
          "type": "address"
        }
      ],
      "name": "isTrustedForwarder",
      "outputs": [
        {
          "internalType": "bool",
          "name": "",
          "type": "bool"
        }
      ],
      "stateMutability": "view",
      "type": "function"
    },
    {
      "inputs": [
        {
          "internalType": "address",
          "name": "",
          "type": "address"
        }
      ],
      "name": "names",
      "outputs": [
        {
          "internalType": "string",
          "name": "",
          "type": "string"
        }
      ],
      "stateMutability": "view",
      "type": "function"
    },
    {
      "inputs": [
        {
          "internalType": "string",
          "name": "",
          "type": "string"
        }
      ],
      "name": "owners",
      "outputs": [
        {
          "internalType": "address",
          "name": "",
          "type": "address"
        }
      ],
      "stateMutability": "view",
      "type": "function"
    },
    {
      "inputs": [
        {
          "internalType": "string",
          "name": "name",
          "type": "string"
        }
      ],
      "name": "register",
      "outputs": [],
      "stateMutability": "nonpayable",
      "type": "function"
    }
  ],
  "bytecode": "0x608060405234801561001057600080fd5b50604051610a2e380380610a2e8339818101604052810190610032919061008f565b80806000806101000a81548173ffffffffffffffffffffffffffffffffffffffff021916908373ffffffffffffffffffffffffffffffffffffffff1602179055505050610113565b600081519050610089816100fc565b92915050565b6000602082840312156100a157600080fd5b60006100af8482850161007a565b91505092915050565b60006100c3826100dc565b9050919050565b60006100d5826100b8565b9050919050565b600073ffffffffffffffffffffffffffffffffffffffff82169050919050565b610105816100ca565b811461011057600080fd5b50565b61090c806101226000396000f3fe608060405234801561001057600080fd5b506004361061004c5760003560e01c80632b1fd99514610051578063572b6c05146100815780635cf3d346146100b1578063f2c298be146100e1575b600080fd5b61006b6004803603810190610066919061057e565b6100fd565b604051610078919061069e565b60405180910390f35b61009b60048036038101906100969190610555565b610146565b6040516100a891906106b9565b60405180910390f35b6100cb60048036038101906100c69190610555565b61019f565b6040516100d891906106d4565b60405180910390f35b6100fb60048036038101906100f6919061057e565b61023f565b005b6002818051602081018201805184825260208301602085012081835280955050505050506000915054906101000a900473ffffffffffffffffffffffffffffffffffffffff1681565b60008060009054906101000a900473ffffffffffffffffffffffffffffffffffffffff1673ffffffffffffffffffffffffffffffffffffffff168273ffffffffffffffffffffffffffffffffffffffff16149050919050565b600160205280600052604060002060009150905080546101be9061081e565b80601f01602080910402602001604051908101604052809291908181526020018280546101ea9061081e565b80156102375780601f1061020c57610100808354040283529160200191610237565b820191906000526020600020905b81548152906001019060200180831161021a57829003601f168201915b505050505081565b600073ffffffffffffffffffffffffffffffffffffffff166002826040516102679190610687565b908152602001604051809103902060009054906101000a900473ffffffffffffffffffffffffffffffffffffffff1673ffffffffffffffffffffffffffffffffffffffff16146102ec576040517f08c379a00000000000000000000000000000000000000000000000000000000081526004016102e3906106f6565b60405180910390fd5b60006102f66103fb565b9050806002836040516103099190610687565b908152602001604051809103902060006101000a81548173ffffffffffffffffffffffffffffffffffffffff021916908373ffffffffffffffffffffffffffffffffffffffff16021790555081600160008373ffffffffffffffffffffffffffffffffffffffff1673ffffffffffffffffffffffffffffffffffffffff16815260200190815260200160002090805190602001906103a8929190610435565b508073ffffffffffffffffffffffffffffffffffffffff167fb3eccf73f39b1c07947c780b2b39df2a1bb058b4037b0a42d0881ca1a028a132836040516103ef91906106d4565b60405180910390a25050565b600061040633610146565b1561041a57601436033560601c9050610429565b61042261042d565b905061042a565b5b90565b600033905090565b8280546104419061081e565b90600052602060002090601f01602090048101928261046357600085556104aa565b82601f1061047c57805160ff19168380011785556104aa565b828001600101855582156104aa579182015b828111156104a957825182559160200191906001019061048e565b5b5090506104b791906104bb565b5090565b5b808211156104d45760008160009055506001016104bc565b5090565b60006104eb6104e684610747565b610716565b90508281526020810184848401111561050357600080fd5b61050e8482856107dc565b509392505050565b600081359050610525816108bf565b92915050565b600082601f83011261053c57600080fd5b813561054c8482602086016104d8565b91505092915050565b60006020828403121561056757600080fd5b600061057584828501610516565b91505092915050565b60006020828403121561059057600080fd5b600082013567ffffffffffffffff8111156105aa57600080fd5b6105b68482850161052b565b91505092915050565b6105c88161079e565b82525050565b6105d7816107b0565b82525050565b60006105e882610777565b6105f28185610782565b93506106028185602086016107eb565b61060b816108ae565b840191505092915050565b600061062182610777565b61062b8185610793565b935061063b8185602086016107eb565b80840191505092915050565b6000610654600a83610782565b91507f4e616d652074616b656e000000000000000000000000000000000000000000006000830152602082019050919050565b60006106938284610616565b915081905092915050565b60006020820190506106b360008301846105bf565b92915050565b60006020820190506106ce60008301846105ce565b92915050565b600060208201905081810360008301526106ee81846105dd565b905092915050565b6000602082019050818103600083015261070f81610647565b9050919050565b6000604051905081810181811067ffffffffffffffff8211171561073d5761073c61087f565b5b8060405250919050565b600067ffffffffffffffff8211156107625761076161087f565b5b601f19601f8301169050602081019050919050565b600081519050919050565b600082825260208201905092915050565b600081905092915050565b60006107a9826107bc565b9050919050565b60008115159050919050565b600073ffffffffffffffffffffffffffffffffffffffff82169050919050565b82818337600083830152505050565b60005b838110156108095780820151818401526020810190506107ee565b83811115610818576000848401525b50505050565b6000600282049050600182168061083657607f821691505b6020821081141561084a57610849610850565b5b50919050565b7f4e487b7100000000000000000000000000000000000000000000000000000000600052602260045260246000fd5b7f4e487b7100000000000000000000000000000000000000000000000000000000600052604160045260246000fd5b6000601f19601f8301169050919050565b6108c88161079e565b81146108d357600080fd5b5056fea2646970667358221220de775656688c5d9583c50125674048bc8292b2b5b5603843ab9257cbf914e63d64736f6c63430008000033",
  "linkReferences": {},
  "deployedLinkReferences": {}
}